:02000000502B83
:06000600000000000800EC
:0E000C00213083120313FD00FD0B0A280800AB
:10001A000F3083120313FC004730FD00FD0B132839
:0A002A00FC0B132800000000080082
:1000340083120313D21B2028861321288617521BF0
:100044002528061326280617D21A2A2886122B28B2
:100054008616521A2F2806123028061647183428F6
:10006400061435280610061503200611D2193C285B
:1000740086133D288617521941280613422806176D
:10008400D218462886124728861652184B2806127C
:100094004C28061647185028061451280610061531
:1000A40003200611471C58280D2059280620080053
:0800B400FA1FF21300300800EE
:1000BC007B15FB1F68280130F300F201F101F00100
:0800CC00FA0DF20CFF300800F0
:0E00D400F201F101F001F801F3010030080023
:1000E2008328803083120313CF009628C030CF00BC
:1000F20096289430CF009628D430CF0096288030AE
:10010200CF009628831203134F08013A031972286D
:100112004F08023A031977284F08033A03197A283D
:100122004F08043A03197D2880285003F0004F0835
:10013200F0077008CF0047147008D2001A20471049
:0A0142005108D2001A2047140800EB
:0E014C008312031349088A0048088200080045
:10015A00FB14FB1FB728FF30F300F200F100F00098
:08016A00FA0DF20CFF30080051
:100172007B14FB1FC428F201FA1FFF30F200F100CA
:0A018200F000FA0DF20CFF30080047
:10018C008312031347104F08D2001A20471408009B
:10019C000E3083120313FD00FD0BD2280000080063
:1001AC00A0017208031DEB287108F2007008F10021
:1001BC00F001A0157208031DEB287108F200F10183
:1001CC00A011201672080319F9282008F302031D48
:1001DC00031CFD280310F21B0129F00DF10DF20D8B
:1001EC00F30BF128FD280130FC006A2004290230B1
:0E01FC00FC005E2004290430FC005A2008009C
:10020A0083120313FB017308031D770803195C2982
:10021A0072087606FA007708F3077E30031C19295C
:10022A00F30203185F291C29F302031C62297208CE
:10023A00F8007108FC007008FD00F817F6170310A3
:10024A00F201F101F0011830A0007D1C3629740872
:10025A00F00775080318750FF10776080318760F6B
:10026A00F207F20CF10CF00CF80CFC0CFD0C03106C
:10027A00A00B2A29F21B4629F80DF00DF10DF20DFB
:10028A00F3037B1B701C5829F81F5829F00A03191D
:10029A00F10A0319F20A031D5829F20CF10CF00CA9
:1002AA00F30A03195F29FA1FF21300306429013097
:1002BA006A2064290230AD20642904305E200000DF
:0202CA0008002A
:1002CC0083120313F801F9011030FC00710DF80DC5
:1002DC00F90D7408F8027508031C750FF902031860
:1002EC007E297408F80775080318750FF9070310B1
:0A02FC00F00DF10DFC0B6C29080059
:1003060083120313FB01FC01FA0173080319C229C6
:10031600F2178E30F302F31B932903199329C5298B
:10032600F309F30A08307302031CA829F300F10D40
:100336007208F100F20108307302031CA829F10DBE
:10034600F1017308031D0310B02973080319B029BE
:100356000310F20CF10CF30BAB297B1B711CBA29B1
:10036600031CBA29F10A0319F20AF21BD129FA1F52
:10037600D429F209F109F10A0319F20AD429F20182
:10038600F101D4297B14FB1FD729F201FA1FD729C3
:10039600FF30F200F100FA0DF20CD7290130FC0013
:1003A600D9290030FC00D929FF30FC00FC080319CC
:0E03B600DD29B9207108F0007208F10008007E
:1003C400831203139F01C0309F043609F0007008A4
:1003D40083169F051F179F1783124C08F000F00D1A
:1003E4007010F00D7010F00D701070089F041F1441
:1003F400CE201F151F1D002A0000FC291F101E08F7
:10040400F100F00183161E08F0040030F104080026
:10041400403083120313D2001A20CE014E08073C49
:10042400031C262A4E08A43EF00003300318013EA4
:10043400F1007008C8007108C900A6208A110A12C8
:10044400CF00C620CE0A102A4C08CF004D08D00099
:06045400D1017120080037
:10045A00831203137008F8007108F000F101F20129
:10046A00F301FB01FC019630F300FA017008F10078
:0C047A007808F000F801F201D62008001C
:1004860083120313CD014D084C078400000803199D
:10049600542A4D084C0784000008CF00C620CD0A18
:0404A600462A0800DA
:1004AA008316031306110610061286120613861304
:1004BA0083120611061086130613861206120D20E1
:1004CA000D200D20861606160615032006110D208E
:1004DA000615032006110D200615032006110D200E
:1004EA0006120615032006110D2006150320061113
:1004FA00861286170615032006110D208613061686
:10050A0006150320061106120615032006110D20F2
:10051A0006150320061106160615032006110D20DE
:10052A0006120615032006118617061786160616E2
:0C053A000615032006110D2047140800D0
:10054600831203134A08CC00E2212D220030F40066
:100556004030F5001C30F6008130F700052183217C
:0205660008008B
:10056800013083120313D2001A208030D2001A20DF
:100578003730CC0043220630FB001330FC00AD308E
:10058800FD00FD0BC52AFC0BC52AFB0BC52A000084
:0A05980000000130D2001A20080014
:1005A2000A3083120313F4000030F5004A08F00009
:1005B2004B08F10066217008CA007108CB000800E0
:1005C200803083120313D2001A202330CC0043223E
:1005D2006430F4000030F5004A08F0004B08F100E6
:1005E20066210A30F4000030F50066217808F00038
:1005F2007908F10030307007CF00C6200A30F400CD
:100602000030F5004A08F0004B08F10066210A307C
:10061200F4000030F50066217808F0007908F10056
:1006220030307007CF00C6200A30F4000030F500E9
:100632004A08F0004B08F10066217808F0007908BA
:10064200F10030307007CF00C6200130CC000A30F4
:10065200CD000A222130CC004322C030D2001A2021
:080662002A30CC0043220800FD
:0E066A008030831603139F00FF3085000800C8
:10067800A6208A110A128000840AC80A0319C90A26
:08068800F003031D3C2B0800E8
:1006900055220130D2001A200C30D2001A20080056
:1006A000AC2348233523B4220130CA00A3227008AA
:1006B000C5007108C6007008CA007108CB00D122BD
:1006C0007008C3007108C4007008CA007108CB002C
:1006D000E1220430FB000C30FC003330FD00FD0B48
:1006E0006F2BFC0B6F2BFB0B6F2B00000000542BB0
:0206F000782B65
:1007580021308400263083120313F0007E30C80055
:080768000330C9003C23080026
:0406FC00433400344F
:0E070000543465346D3470343A34203400348F
:10070E004C344D34333435342034533465346E34F4
:08071E0073346F3472340034AF
:020726000F348E
:100728004C346F346134643469346E346734203443
:080738002E342E342E3400345F
:04074000003400344D
:040744000034003449
:100748001C3414341C3400340034003400340034B5
:02400E004A2F37
:00000001FF
