:02000000B6291F
:10000800FF00030E8301D3000A08D4008A01040804
:10001800A1008C1C5C28A20A0319A30A80302306BD
:10002800F00080307002031D1B2828302202031CB8
:100038002728A201A3010130D006071095018711D6
:100048009B0100000000D01C5728501C41280714B1
:100058002208283E84000008F0009A212408F400B1
:100068002508F5002608F6002708F7003921F620AC
:100078007008950087119B01562807109501871570
:100088002208283E84000008F0009A212408F40081
:100098002508F5002608F6002708F7003921F6207C
:1000A80070089B005B280710950187119B018C1035
:1000B8002108840054088A00530E8300FF0E7F0E27
:0200C80009002D
:0E00CA00F201F101F001F801F301003008002D
:1000D800FB14FB1F7628FF30F300F200F100F0005C
:0800E800FA0DF20CFF300800D4
:0800F000FA1FF21300300800B2
:1000F8007B15FB1F86280130F300F201F101F001A6
:08010800FA0DF20CFF300800B3
:0E0110008312031352088A005108820008006F
:10011E007C18C528FC1896287C19E4288F28A00185
:10012E007208031DB6287108F2007008F1007808F5
:10013E00F000F801A0157208031DB6287108F20030
:10014E007008F100F001A01120167208031DB628E8
:10015E007108F200F101A01572080319D8282008C1
:10016E00F302031D031CDC280310F21BC528F80D37
:10017E00F00DF10DF20DF30BBC28DC287B1B701C6F
:10018E00E028F81FE028F00A0319F10A0319F20A11
:10019E00031DE028F20CF10CF00CF30A0319E4280D
:1001AE00E0280130FC006520E7280230FC007C20AE
:1001BE00E7280430FC007820E7280830FC006C208B
:0401CE000000080025
:1001D2007B14FB1FF428F201FA1FFF30F200F1003A
:0A01E200F000FA0DF20CFF300800E7
:1001EC0083120313FB01FC01FA0173080319232981
:1001FC00FA13F2178630F302F31B072903190729A8
:10020C002529F309F30A08307302031C1429F3009F
:10021C00F20DF2017308031D03101B297308031957
:10022C001B290310F20CF30B17297B1B721C2329BF
:10023C00031C2329F20A03192A29F1012D297B1405
:10024C00FB1F3029F10130290130FC00322900302C
:10025C00FC003229FF30FC00FC0803193629E92088
:06026C007208F00008001A
:1002720083120313FB017308031D770803199029E6
:1002820072087606FA007708F3077E30031C4D29C0
:10029200F302031893295029F302031C96297208CA
:1002A200F8007108FC007008FD00F817F61703103B
:1002B200F201F101F0011830A0007D1C6A297408D6
:1002C200F00775080318750FF10776080318760F03
:1002D200F207F20CF10CF00CF80CFC0CFD0C031004
:1002E200A00B5E29F21B7A29F80DF00DF10DF20D2B
:1002F200F3037B1B701C8C29F81F8C29F00A03194D
:10030200F10A0319F20A031D8C29F20CF10CF00C0C
:10031200F30A03199329FA1FF213003098290130C6
:100322006520982902306C20982904307C20000036
:020332000800C1
:10033400831203137008F800FB01FC019E30F300E4
:10034400FA01F201F101F0010230FC008F200800F3
:1003540088208A110A128000840AD10A0319D20A59
:08036400F003031DAA290800A3
:10036C000622831603138701831287014C309700F2
:10037C0095014C309D009B018C101C309200F93083
:10038C008316920083128C10831687018C148B17A2
:0A039C000B178312D014D129D229C7
:10040C00223084002E3083120313F000D830D10038
:08041C000130D200AA21080002
:0403B00000340034E1
:0803B400CD34CC344C347E340E
:1003BC000034023406340E341834253435344634C3
:1003CC0058346C3480349334A734B934CA34DA34A6
:1003DC00E734F134F934FD34FF34FD34F934F134BD
:1003EC00E734DA34CA34B934A734933480346C34F7
:1003FC00583446343534253418340E34063402342B
:02400E004A2F37
:00000001FF
