:020000000529D0
:0E000600213083120313FD00FD0B07280800B4
:100014000F3083120313FC004730FD00FD0B102842
:0A002400FC0B10280000000008008B
:06002E00000000000800C4
:1000340083120313B11B2028861321288617311B32
:100044002528061326280617B11A2A2886122B28D3
:100054008616311A2F280612302806162C18342832
:10006400061435280610061517200611B1193C2868
:1000740086133D288617311941280613422806178E
:10008400B118462886124728861631184B280612BE
:100094004C2806162C18502806145128061006154C
:1000A400172006112C1C58280A2059280320080060
:0E00B400831203132B088A002A08820008001A
:1000C20083160313981867280000612883123108E9
:0400D2009900080089
:1000D60083120313B0012E0884000008AF002F0816
:1000E600003A031980282F08B1006120B00A3008B1
:0C00F6002E0784000008AF0072280800EC
:10010200831203132C102E08B1001A202C1408009D
:0E0112000030831203138C1A0130F000080035
:100120005A208A110A128000840AAA0A0319AB0A0B
:08013000F003031D90280800F4
:10013800831203131A08F100981CA4281812181621
:060148007108F000080040
:10014E008316031398169030831298008316871720
:10015E00071383128C1EB6281A08F000B028080068
:10016E008316031306110610061286120613861343
:10017E0083120611061086130613861206120A2023
:10018E000A200A20861606160615172006110A20C2
:10019E000615172006110A200615172006110A202B
:1001AE0006120615172006110A200615172006112D
:1001BE00861286170615172006110A2086130616B4
:1001CE0006151720061106120615172006110A200D
:1001DE0006151720061106160615172006110A20F9
:1001EE00061206151720061186170617861606160E
:0C01FE000615172006110A202C1408001A
:10020A00553083120313A0004130A1005230A200DE
:10021A005430A3002030A4005430A5006530A60055
:10022A007330A7007430A800A9010F308316880024
:10023A00D7308600EF308500EF3083128500B72073
:10024A000130B1001A203330831699001815A720FF
:10025A002030AE006B200D30B1006120892070087B
:10026A00031940299C207008AD007008B100612074
:0A027A002D08AE0081203329412930
:02400E004A2F37
:00000001FF
