:020000007D2958
:06000600000000000800EC
:0E000C00213083120313FD00FD0B0A280800AB
:10001A000F3083120313FC004730FD00FD0B132839
:0A002A00FC0B132800000000080082
:1000340083120313CB1B20288613212886174B1BFE
:100044002528061326280617CB1A2A2886122B28B9
:1000540086164B1A2F280612302806164318342801
:10006400061435280610061503200611CB193C2862
:1000740086133D2886174B19412806134228061774
:10008400CB1846288612472886164B184B2806128A
:100094004C28061643185028061451280610061535
:1000A40003200611431C58280D2059280620080057
:1000B4008312031343104A08CB001A204314080088
:1000C4007428803083120313C6008728C030C6000A
:1000D40087289430C6008728D430C600872880300B
:1000E400C6008728831203134608013A03196328BC
:1000F4004608023A031968284608033A03196B288C
:100104004608043A03196E2871284703F00046088C
:10011400F0077008C6007008CB001A204310C9010C
:1001240049084807840000080319A028490848071B
:1001340084000008CA005A20C90A922843140800FF
:0E0144008312031345088A0044088200080055
:1001520083120313C70147084607840000080319E6
:10016200BA284708460784000008CA005A20C70A6E
:04017200AC280800AD
:10017600CD28803083120313C600E028C030C600A5
:10018600E0289430C600E028D430C600E02880304D
:10019600C600E028831203134608013A0319BC2857
:1001A6004608023A0319C1284608033A0319C42827
:1001B6004608043A0319C728CA284703F000460828
:1001C600F0077008C60043147008CB001A204310CD
:0A01D6004808CB001A20431408006B
:1001E000023083120313C6000130C7004530C80037
:1001F000BB204E30CA005A204430CA005A200800A2
:10020000013083120313CB001A200130C6000130E5
:10021000C7002730C80062200230C6000130C70086
:080220003A30C800622008001A
:100228008316031306110610061286120613861388
:1002380083120611061086130613861206120D2065
:100248000D200D20861606160615032006110D2012
:100258000615032006110D200615032006110D2092
:1002680006120615032006110D2006150320061197
:10027800861286170615032006110D20861306160A
:1002880006150320061106120615032006110D2077
:1002980006150320061106160615032006110D2063
:1002A8000612061503200611861706178616061667
:0C02B8000615032006110D204314080059
:1002C400803083120313CB001A203330C600A920D8
:0E02D400C030CB001A202030C600A920080040
:1002E200A2208A110A128000840AC40A0319C50ACC
:0802F200F003031D712908004F
:1002FA00CC21142100211530FB004B30FC00BE300C
:10030A00FD00FD0B8629FC0B8629FB0B86290000C4
:10031A000130CB001A2062211530FB004B30FC0063
:10032A00BE30FD00FD0B9729FC0B9729FB0B972983
:0E033A0000000130CB001A20F020A229A329D8
:1003980020308400233083120313F000A930C400F6
:0803A8000130C50071210800BD
:0E0352004C3469346E34653420343234003457
:100360004C346F346134643469346E34673420340F
:080370002E342E342E3400342B
:0E0378004C3469346E34653420343134003432
:10038600543465347334743420344C344334443434
:02039600003431
:02400E004A2F37
:00000001FF
