:02000000322BA1
:0E000600213083120313FD00FD0B07280800B4
:100014000F3083120313FC004730FD00FD0B102842
:0A002400FC0B10280000000008008B
:06002E00000000000800C4
:100034007B15FB1F24280130F300F201F101F001CC
:08004400FA0DF20CFF30080078
:10004C0083120313C71B2C2886132D288617471BD6
:10005C003128061332280617C71A36288612372875
:10006C008616471A3B2806123C2806163F184028CD
:10007C00061441280610061517200611C719482822
:10008C0086134928861747194D2806134E2806173C
:10009C00C718522886125328861647185728061256
:1000AC00582806163F185C2806145D2806100615FD
:1000BC00172006113F1C64280A206528032008001D
:0800CC00FA1FF21300300800D6
:0E00D400F201F101F001F801F3010030080023
:1000E200FB14FB1F7B28FF30F300F200F100F0004D
:0800F200FA0DF20CFF300800CA
:1000FA007B14FB1F8828F201FA1FFF30F200F1007F
:0A010A00F000FA0DF20CFF300800BF
:10011400831203133F104608C70026203F1408002B
:10012400A0017208031DA7287108F2007008F100ED
:10013400F001A0157208031DA7287108F200F1014F
:10014400A011201672080319B5282008F302031D14
:10015400031CB9280310F21BBD28F00DF10DF20D9C
:10016400F30BAD28B9280130FC006A20C028023006
:0E017400FC001A20C0280430FC0066200800A1
:100182000E3083120313FD00FD0BC528000008008A
:10019200831203137008F8007108F000F101F201F4
:1001A200F301FB01FC019630F300FA017008F10043
:0C01B2007808F000F801F201922008002B
:1001BE0083120313FB01FC01FA01730803191E29B4
:1001CE00F2178E30F302F31BEF280319EF282129C3
:1001DE00F309F30A08307302031C0429F300F10D2E
:1001EE007208F100F20108307302031C0429F10DAC
:1001FE00F1017308031D03100C29730803190C2950
:10020E000310F20CF10CF30B07297B1B711C162942
:10021E00031C1629F10A0319F20AF21B2D29FA1FE3
:10022E003029F209F109F10A0319F20A3029F20113
:10023E00F10130297B14FB1F3329F201FA1F3329F8
:10024E00FF30F200F100FA0DF20C33290130FC0000
:10025E0035290030FC003529FF30FC00FC0803195D
:0E026E0039297D207108F0007208F1000800A7
:10027C0083120313C50145084407840000080319C1
:10028C004F294508440784000008C6008A20C50A87
:04029C0041290800EC
:1002A000831203139F01C0309F042A09F0007008D5
:1002B00083169F051F179F1783124408F000F00D47
:1002C0007010F00D7010F00D701070089F041F1466
:1002D000C1201F151F1D6E2900006A291F101E084E
:1002E000F100F00183161E08F0040030F10408004C
:1002F00083120313FB017308031D77080319CF2929
:1003000072087606FA007708F3077E30031C8C2902
:10031000F3020318D2298F29F302031CD52972088E
:10032000F8007108FC007008FD00F817F6170310BC
:10033000F201F101F0011830A0007D1CA929740818
:10034000F00775080318750FF10776080318760F84
:10035000F207F20CF10CF00CF80CFC0CFD0C031085
:10036000A00B9D29F21BB929F80DF00DF10DF20D2E
:10037000F3037B1B701CCB29F81FCB29F00A031950
:10038000F10A0319F20A031DCB29F20CF10CF00C4F
:10039000F30A0319D229FA1FF2130030D7290130CA
:1003A0006A20D72902307120D72904301A20000092
:0203B000080043
:1003B20083120313F801F9011030FC00710DF80DDE
:1003C200F90D7408F8027508031C750FF902031879
:1003D200F1297408F80775080318750FF907031057
:0A03E200F00DF10DFC0BDF290800FF
:0E03EC008312031341088A00400882000800B3
:1003FA0083160313061106100612861206138613B5
:10040A0083120611061086130613861206120A2094
:10041A000A200A20861606160615172006110A2033
:10042A000615172006110A200615172006110A209C
:10043A0006120615172006110A200615172006119E
:10044A00861286170615172006110A208613061625
:10045A0006151720061106120615172006110A207E
:10046A0006151720061106160615172006110A206A
:10047A00061206151720061186170617861606167F
:0C048A000615172006110A203F14080078
:10049600C03083120313C70026203B30C4003E2120
:1004A600E830F4000330F5004208F0004308F1009C
:1004B600D9210A30F4000030F500D9217808F0007F
:1004C6007908F10030307007C6008A206430F400E5
:1004D6000030F5004208F0004308F100D9210A3047
:1004E600F4000030F500D9217808F0007908F10011
:1004F60030307007C6008A200A30F4000030F5005C
:100506004208F0004308F100D9210A30F400003017
:10051600F500D9217808F0007908F100303070072D
:10052600C6008A200A30F4000030F5004208F000C8
:100536004308F100D9217808F0007908F10030303D
:0E0546007007C6008A203730C4003E2108002E
:10055400013083120313C70026208030C7002620F1
:100564002B30C4003E210B30FB002630FC005D30F4
:10057400FD00FD0BBB2AFC0BBB2AFB0BBB2A0000B6
:0A05840000000130C7002620080027
:10058E00831203134208C4005021C9200030F40026
:10059E004030F5001C30F6008130F7007821DF2066
:0205AE00080043
:1005B000803083120313C70026202430C4003E215C
:1005C0006430F4000030F5004208F0004308F10008
:1005D000D9217008C2007108C3000A30F40000304D
:1005E000F500D9210A30F4000030F500D92178084F
:1005F000F0007908F10030307007C6008A202E30F4
:10060000C6008A200A30F4000030F5004208F000ED
:100610004308F100D9217808F0007908F100303062
:0E0620007007C6008A202130C4003E21080069
:10062E00F6218A110A128000840AC00A0319C10A2F
:08063E00F003031D172B080057
:10064600FD210130C70026200C30C70026200800F7
:0E0656008030831603139F00FF3085000800DC
:100664007A2323232B23AA220130C200C722700835
:10067400A8007108A9007008C2007108C300D8223C
:100684002808C2002908C3004B220430FB000C30A8
:10069400FC003330FD00FD0B4D2BFC0B4D2BFB0BF5
:0A06A4004D2B00000000362B562BF2
:1006F400213084001E3083120313F0005C30C000EC
:080704000330C10017230800B7
:0606B8007634203400340A
:0806BE0049346E343A34003473
:0406C60000340034C8
:0206CA000F34EB
:1006CC004C346F346134643469346E3467342034A0
:0806DC002E342E342E340034BC
:0806E4006D345634203400345B
:0806EC0049346E343A34003445
:02400E004A2F37
:00000001FF
